{
    "contractName": "TebeJoelNFT",
    "abi": [
        {
            "inputs": [
                {
                    "internalType": "address",
                    "name": "initialOwner",
                    "type": "address"
                }
            ],
            "stateMutability": "nonpayable",
            "type": "constructor"
        },
        {
            "inputs": [
                {
                    "internalType": "address",
                    "name": "sender",
                    "type": "address"
                },
                {
                    "internalType": "uint256",
                    "name": "tokenId",
                    "type": "uint256"
                },
                {
                    "internalType": "address",
                    "name": "owner",
                    "type": "address"
                }
            ],
            "name": "ERC721IncorrectOwner",
            "type": "error"
        },
        {
            "inputs": [
                {
                    "internalType": "address",
                    "name": "operator",
                    "type": "address"
                },
                {
                    "internalType": "uint256",
                    "name": "tokenId",
                    "type": "uint256"
                }
            ],
            "name": "ERC721InsufficientApproval",
            "type": "error"
        },
        {
            "inputs": [
                {
                    "internalType": "address",
                    "name": "approver",
                    "type": "address"
                }
            ],
            "name": "ERC721InvalidApprover",
            "type": "error"
        },
        {
            "inputs": [
                {
                    "internalType": "address",
                    "name": "operator",
                    "type": "address"
                }
            ],
            "name": "ERC721InvalidOperator",
            "type": "error"
        },
        {
            "inputs": [
                {
                    "internalType": "address",
                    "name": "owner",
                    "type": "address"
                }
            ],
            "name": "ERC721InvalidOwner",
            "type": "error"
        },
        {
            "inputs": [
                {
                    "internalType": "address",
                    "name": "receiver",
                    "type": "address"
                }
            ],
            "name": "ERC721InvalidReceiver",
            "type": "error"
        },
        {
            "inputs": [
                {
                    "internalType": "address",
                    "name": "sender",
                    "type": "address"
                }
            ],
            "name": "ERC721InvalidSender",
            "type": "error"
        },
        {
            "inputs": [
                {
                    "internalType": "uint256",
                    "name": "tokenId",
                    "type": "uint256"
                }
            ],
            "name": "ERC721NonexistentToken",
            "type": "error"
        },
        {
            "inputs": [
                {
                    "internalType": "address",
                    "name": "owner",
                    "type": "address"
                }
            ],
            "name": "OwnableInvalidOwner",
            "type": "error"
        },
        {
            "inputs": [
                {
                    "internalType": "address",
                    "name": "account",
                    "type": "address"
                }
            ],
            "name": "OwnableUnauthorizedAccount",
            "type": "error"
        },
        {
            "anonymous": false,
            "inputs": [
                {
                    "indexed": true,
                    "internalType": "address",
                    "name": "owner",
                    "type": "address"
                },
                {
                    "indexed": true,
                    "internalType": "address",
                    "name": "approved",
                    "type": "address"
                },
                {
                    "indexed": true,
                    "internalType": "uint256",
                    "name": "tokenId",
                    "type": "uint256"
                }
            ],
            "name": "Approval",
            "type": "event"
        },
        {
            "anonymous": false,
            "inputs": [
                {
                    "indexed": true,
                    "internalType": "address",
                    "name": "owner",
                    "type": "address"
                },
                {
                    "indexed": true,
                    "internalType": "address",
                    "name": "operator",
                    "type": "address"
                },
                {
                    "indexed": false,
                    "internalType": "bool",
                    "name": "approved",
                    "type": "bool"
                }
            ],
            "name": "ApprovalForAll",
            "type": "event"
        },
        {
            "anonymous": false,
            "inputs": [
                {
                    "indexed": false,
                    "internalType": "uint256",
                    "name": "_fromTokenId",
                    "type": "uint256"
                },
                {
                    "indexed": false,
                    "internalType": "uint256",
                    "name": "_toTokenId",
                    "type": "uint256"
                }
            ],
            "name": "BatchMetadataUpdate",
            "type": "event"
        },
        {
            "anonymous": false,
            "inputs": [
                {
                    "indexed": false,
                    "internalType": "uint256",
                    "name": "_tokenId",
                    "type": "uint256"
                }
            ],
            "name": "MetadataUpdate",
            "type": "event"
        },
        {
            "anonymous": false,
            "inputs": [
                {
                    "indexed": true,
                    "internalType": "address",
                    "name": "previousOwner",
                    "type": "address"
                },
                {
                    "indexed": true,
                    "internalType": "address",
                    "name": "newOwner",
                    "type": "address"
                }
            ],
            "name": "OwnershipTransferred",
            "type": "event"
        },
        {
            "anonymous": false,
            "inputs": [
                {
                    "indexed": true,
                    "internalType": "address",
                    "name": "from",
                    "type": "address"
                },
                {
                    "indexed": true,
                    "internalType": "address",
                    "name": "to",
                    "type": "address"
                },
                {
                    "indexed": true,
                    "internalType": "uint256",
                    "name": "tokenId",
                    "type": "uint256"
                }
            ],
            "name": "Transfer",
            "type": "event"
        },
        {
            "inputs": [
                {
                    "internalType": "address",
                    "name": "to",
                    "type": "address"
                },
                {
                    "internalType": "uint256",
                    "name": "tokenId",
                    "type": "uint256"
                }
            ],
            "name": "approve",
            "outputs": [],
            "stateMutability": "nonpayable",
            "type": "function"
        },
        {
            "inputs": [
                {
                    "internalType": "address",
                    "name": "owner",
                    "type": "address"
                }
            ],
            "name": "balanceOf",
            "outputs": [
                {
                    "internalType": "uint256",
                    "name": "",
                    "type": "uint256"
                }
            ],
            "stateMutability": "view",
            "type": "function"
        },
        {
            "inputs": [
                {
                    "internalType": "uint256",
                    "name": "tokenId",
                    "type": "uint256"
                }
            ],
            "name": "getApproved",
            "outputs": [
                {
                    "internalType": "address",
                    "name": "",
                    "type": "address"
                }
            ],
            "stateMutability": "view",
            "type": "function"
        },
        {
            "inputs": [
                {
                    "internalType": "address",
                    "name": "owner",
                    "type": "address"
                },
                {
                    "internalType": "address",
                    "name": "operator",
                    "type": "address"
                }
            ],
            "name": "isApprovedForAll",
            "outputs": [
                {
                    "internalType": "bool",
                    "name": "",
                    "type": "bool"
                }
            ],
            "stateMutability": "view",
            "type": "function"
        },
        {
            "inputs": [],
            "name": "isMintEnabled",
            "outputs": [
                {
                    "internalType": "bool",
                    "name": "",
                    "type": "bool"
                }
            ],
            "stateMutability": "view",
            "type": "function"
        },
        {
            "inputs": [],
            "name": "maxSupply",
            "outputs": [
                {
                    "internalType": "uint256",
                    "name": "",
                    "type": "uint256"
                }
            ],
            "stateMutability": "view",
            "type": "function"
        },
        {
            "inputs": [
                {
                    "internalType": "string",
                    "name": "metadata",
                    "type": "string"
                }
            ],
            "name": "mint",
            "outputs": [],
            "stateMutability": "payable",
            "type": "function"
        },
        {
            "inputs": [],
            "name": "mintPrice",
            "outputs": [
                {
                    "internalType": "uint256",
                    "name": "",
                    "type": "uint256"
                }
            ],
            "stateMutability": "view",
            "type": "function"
        },
        {
            "inputs": [
                {
                    "internalType": "address",
                    "name": "",
                    "type": "address"
                }
            ],
            "name": "mintedWallets",
            "outputs": [
                {
                    "internalType": "uint256",
                    "name": "",
                    "type": "uint256"
                }
            ],
            "stateMutability": "view",
            "type": "function"
        },
        {
            "inputs": [],
            "name": "name",
            "outputs": [
                {
                    "internalType": "string",
                    "name": "",
                    "type": "string"
                }
            ],
            "stateMutability": "view",
            "type": "function"
        },
        {
            "inputs": [],
            "name": "owner",
            "outputs": [
                {
                    "internalType": "address",
                    "name": "",
                    "type": "address"
                }
            ],
            "stateMutability": "view",
            "type": "function"
        },
        {
            "inputs": [
                {
                    "internalType": "uint256",
                    "name": "tokenId",
                    "type": "uint256"
                }
            ],
            "name": "ownerOf",
            "outputs": [
                {
                    "internalType": "address",
                    "name": "",
                    "type": "address"
                }
            ],
            "stateMutability": "view",
            "type": "function"
        },
        {
            "inputs": [],
            "name": "renounceOwnership",
            "outputs": [],
            "stateMutability": "nonpayable",
            "type": "function"
        },
        {
            "inputs": [
                {
                    "internalType": "address",
                    "name": "from",
                    "type": "address"
                },
                {
                    "internalType": "address",
                    "name": "to",
                    "type": "address"
                },
                {
                    "internalType": "uint256",
                    "name": "tokenId",
                    "type": "uint256"
                }
            ],
            "name": "safeTransferFrom",
            "outputs": [],
            "stateMutability": "nonpayable",
            "type": "function"
        },
        {
            "inputs": [
                {
                    "internalType": "address",
                    "name": "from",
                    "type": "address"
                },
                {
                    "internalType": "address",
                    "name": "to",
                    "type": "address"
                },
                {
                    "internalType": "uint256",
                    "name": "tokenId",
                    "type": "uint256"
                },
                {
                    "internalType": "bytes",
                    "name": "data",
                    "type": "bytes"
                }
            ],
            "name": "safeTransferFrom",
            "outputs": [],
            "stateMutability": "nonpayable",
            "type": "function"
        },
        {
            "inputs": [
                {
                    "internalType": "address",
                    "name": "operator",
                    "type": "address"
                },
                {
                    "internalType": "bool",
                    "name": "approved",
                    "type": "bool"
                }
            ],
            "name": "setApprovalForAll",
            "outputs": [],
            "stateMutability": "nonpayable",
            "type": "function"
        },
        {
            "inputs": [
                {
                    "internalType": "uint256",
                    "name": "maxSupply_",
                    "type": "uint256"
                }
            ],
            "name": "setMaxSupply",
            "outputs": [],
            "stateMutability": "nonpayable",
            "type": "function"
        },
        {
            "inputs": [
                {
                    "internalType": "bytes4",
                    "name": "interfaceId",
                    "type": "bytes4"
                }
            ],
            "name": "supportsInterface",
            "outputs": [
                {
                    "internalType": "bool",
                    "name": "",
                    "type": "bool"
                }
            ],
            "stateMutability": "view",
            "type": "function"
        },
        {
            "inputs": [],
            "name": "symbol",
            "outputs": [
                {
                    "internalType": "string",
                    "name": "",
                    "type": "string"
                }
            ],
            "stateMutability": "view",
            "type": "function"
        },
        {
            "inputs": [],
            "name": "toggleIsMintEnabled",
            "outputs": [],
            "stateMutability": "nonpayable",
            "type": "function"
        },
        {
            "inputs": [
                {
                    "internalType": "uint256",
                    "name": "tokenId",
                    "type": "uint256"
                }
            ],
            "name": "tokenURI",
            "outputs": [
                {
                    "internalType": "string",
                    "name": "",
                    "type": "string"
                }
            ],
            "stateMutability": "view",
            "type": "function"
        },
        {
            "inputs": [],
            "name": "totalSupply",
            "outputs": [
                {
                    "internalType": "uint256",
                    "name": "",
                    "type": "uint256"
                }
            ],
            "stateMutability": "view",
            "type": "function"
        },
        {
            "inputs": [
                {
                    "internalType": "address",
                    "name": "from",
                    "type": "address"
                },
                {
                    "internalType": "address",
                    "name": "to",
                    "type": "address"
                },
                {
                    "internalType": "uint256",
                    "name": "tokenId",
                    "type": "uint256"
                }
            ],
            "name": "transferFrom",
            "outputs": [],
            "stateMutability": "nonpayable",
            "type": "function"
        },
        {
            "inputs": [
                {
                    "internalType": "address",
                    "name": "newOwner",
                    "type": "address"
                }
            ],
            "name": "transferOwnership",
            "outputs": [],
            "stateMutability": "nonpayable",
            "type": "function"
        }
    ],
    "bytecode": "608060405234610395576116b36020813803918261001c81610399565b93849283398101031261039557516001600160a01b03811690819003610395576100466040610399565b90600d82526c1519589948129bd95b08139195609a1b602083015261006b6040610399565b6005815264151293919560da1b602082015282519091906001600160401b0381116102a9575f54600181811c9116801561038b575b602082101461028b57601f8111610329575b506020601f82116001146102c857819293945f926102bd575b50508160011b915f199060031b1c1916175f555b81516001600160401b0381116102a957600154600181811c9116801561029f575b602082101461028b57601f8111610228575b50602092601f82116001146101c757928192935f926101bc575b50508160011b915f199060031b1c1916176001555b80156101a957600780546001600160a01b03198116831790915560405191906001600160a01b03167f8be0079c531659141344cd1fd0a4f28419497f9722a3daafe3b4186f6b6457e05f80a366b1a2bc2ec500006008556002600a556112f490816103bf8239f35b631e4fbdf760e01b5f525f60045260245ffd5b015190505f8061012c565b601f1982169360015f52805f20915f5b86811061021057508360019596106101f8575b505050811b01600155610141565b01515f1960f88460031b161c191690555f80806101ea565b919260206001819286850151815501940192016101d7565b60015f527fb10e2d527612073b26eecdfd717e6a320cf44b4afac2b0732d9fcbe2b7fa0cf6601f830160051c81019160208410610281575b601f0160051c01905b8181106102765750610112565b5f8155600101610269565b9091508190610260565b634e487b7160e01b5f52602260045260245ffd5b90607f1690610100565b634e487b7160e01b5f52604160045260245ffd5b015190505f806100cb565b601f198216905f8052805f20915f5b818110610311575095836001959697106102f9575b505050811b015f556100df565b01515f1960f88460031b161c191690555f80806102ec565b9192602060018192868b0151815501940192016102d7565b5f80527f290decd9548b62a8d60345a988386fc84ba6bc95484008f6362f93160ef3e563601f830160051c81019160208410610381575b601f0160051c01905b81811061037657506100b2565b5f8155600101610369565b9091508190610360565b90607f16906100a0565b5f80fd5b6040519190601f01601f191682016001600160401b038111838210176102a95760405256fe6080806040526004361015610012575f80fd5b5f3560e01c90816301ffc9a714610cfe5750806306fdde0314610c5c578063081812fc14610c20578063095ea7b314610b3657806318160ddd14610b1957806323b872dd14610b02578063346de50a14610ae057806342842e0e14610ab15780636352211e14610a815780636817c76c14610a645780636f8b44b014610a4357806370a08231146109f2578063715018a6146109975780638da5cb5b1461096f57806395d89b41146108a5578063a22cb4651461080a578063ada7c4ed146107d2578063b88d4fde14610764578063c407321714610735578063c87b56dd146106fe578063d5abeb01146106e1578063d85d3d2714610205578063e985e9c5146101ae5763f2fde38b14610124575f80fd5b346101aa5760203660031901126101aa5761013d610da7565b610145611161565b6001600160a01b0316801561019757600780546001600160a01b0319811683179091556001600160a01b03167f8be0079c531659141344cd1fd0a4f28419497f9722a3daafe3b4186f6b6457e05f80a3005b631e4fbdf760e01b5f525f60045260245ffd5b5f80fd5b346101aa5760403660031901126101aa576101c7610da7565b6101cf610dbd565b9060018060a01b03165f52600560205260405f209060018060a01b03165f52602052602060ff60405f2054166040519015158152f35b60203660031901126101aa5760043567ffffffffffffffff81116101aa57366023820112156101aa57610242903690602481600401359101610e4b565b60ff600b5416156106a657335f52600c602052600160405f2054101561066857600854340361063557600a54600954101561060557335f52600c60205260405f2061028d815461110b565b905561029a60095461110b565b806009556020906040516102ae8382610e0d565b5f815233156105f2575f8281526002845260409020546001600160a01b031680151590816105c1575b335f8181526003875260408082208054600101905586825260028852812080546001600160a01b0319168317905585919083907fddf252ad1be2c89b69c2b068fc378daa952ba7f163c4a11628f55a4df523b3ef9080a4506105ae5782333b6104a5575b5050805f526006825260405f20835167ffffffffffffffff8111610491576103638254610e81565b601f811161044e575b508394601f82116001146103cc577ff8e1a15aba9398e019f0b49df1a4fde98ee17ae345cb5f6b5e2c27f5033e8ce7955f91836103c1575b50508160011b915f199060031b1c19161790555b604051908152a1005b0151905086806103a4565b601f19821695835f52855f20915f5b8881106104375750908392916001947ff8e1a15aba9398e019f0b49df1a4fde98ee17ae345cb5f6b5e2c27f5033e8ce7991061041f575b505050811b0190556103b8565b01515f1960f88460031b161c19169055868080610412565b9192876001819286850151815501940192016103db565b825f52845f20601f830160051c810191868410610487575b601f0160051c01905b81811061047c575061036c565b5f815560010161046f565b9091508190610466565b634e487b7160e01b5f52604160045260245ffd5b6104dd9160405180938192630a85bd0160e11b83523360048401525f6024840152866044840152608060648401526084830190610d83565b03815f335af15f918161056e575b5061053d57823d15610536573d61050181610e2f565b9061050f6040519283610e0d565b81523d5f8383013e5b8051918261053357633250574960e11b5f523360045260245ffd5b01fd5b6060610518565b6001600160e01b03191663757a42ff60e11b0161055b57838261033b565b633250574960e11b5f523360045260245ffd5b9091508381813d83116105a7575b6105868183610e0d565b810103126101aa57516001600160e01b0319811681036101aa5790856104eb565b503d61057c565b6339e3563760e11b5f525f60045260245ffd5b5f8481526004602052604080822080546001600160a01b031916905582825260038752902080545f190190556102d7565b633250574960e11b5f525f60045260245ffd5b60405162461bcd60e51b81526020600482015260086024820152671cdbdb19081bdd5d60c21b6044820152606490fd5b60405162461bcd60e51b815260206004820152600b60248201526a77726f6e672076616c756560a81b6044820152606490fd5b60405162461bcd60e51b8152602060048201526016602482015275195e18d959591cc81b585e081c195c881dd85b1b195d60521b6044820152606490fd5b60405162461bcd60e51b81526020600482015260136024820152721b5a5b9d1a5b99c81b9bdd08195b98589b1959606a1b6044820152606490fd5b346101aa575f3660031901126101aa576020600a54604051908152f35b346101aa5760203660031901126101aa5761073161071d600435611046565b604051918291602083526020830190610d83565b0390f35b346101aa575f3660031901126101aa5761074d611161565b600b5460ff80821615169060ff191617600b555f80f35b346101aa5760803660031901126101aa5761077d610da7565b610785610dbd565b906044356064359267ffffffffffffffff84116101aa57366023850112156101aa576107be6107d0943690602481600401359101610e4b565b926107ca838383610eb9565b33611188565b005b346101aa5760203660031901126101aa576001600160a01b036107f3610da7565b165f52600c602052602060405f2054604051908152f35b346101aa5760403660031901126101aa57610823610da7565b602435908115158092036101aa576001600160a01b031690811561089257335f52600560205260405f20825f5260205260405f2060ff1981541660ff83161790556040519081527f17307eab39ab6107e8899845ad3d59bd9653f200f220920489ca2b5937696c3160203392a3005b50630b61174360e31b5f5260045260245ffd5b346101aa575f3660031901126101aa576040515f6001546108c581610e81565b808452906001811690811561094b57506001146108ed575b6107318361071d81850382610e0d565b91905060015f527fb10e2d527612073b26eecdfd717e6a320cf44b4afac2b0732d9fcbe2b7fa0cf6915f905b8082106109315750909150810160200161071d6108dd565b919260018160209254838588010152019101909291610919565b60ff191660208086019190915291151560051b8401909101915061071d90506108dd565b346101aa575f3660031901126101aa576007546040516001600160a01b039091168152602090f35b346101aa575f3660031901126101aa576109af611161565b600780546001600160a01b031981169091555f906001600160a01b03167f8be0079c531659141344cd1fd0a4f28419497f9722a3daafe3b4186f6b6457e08280a3005b346101aa5760203660031901126101aa576001600160a01b03610a13610da7565b168015610a30575f526003602052602060405f2054604051908152f35b6322718ad960e21b5f525f60045260245ffd5b346101aa5760203660031901126101aa57610a5c611161565b600435600a55005b346101aa575f3660031901126101aa576020600854604051908152f35b346101aa5760203660031901126101aa576020610a9f60043561112d565b6040516001600160a01b039091168152f35b346101aa576107d0610ac236610dd3565b9060405192610ad2602085610e0d565b5f84526107ca838383610eb9565b346101aa575f3660031901126101aa57602060ff600b54166040519015158152f35b346101aa576107d0610b1336610dd3565b91610eb9565b346101aa575f3660031901126101aa576020600954604051908152f35b346101aa5760403660031901126101aa57610b4f610da7565b602435610b5b8161112d565b33151580610c0d575b80610be0575b610bcd5781906001600160a01b0384811691167f8c5be1e5ebec7d5bd14f71427d1e84f3dd0314c0f7b2291e5b200ac8c7c3b9255f80a45f90815260046020526040902080546001600160a01b0319166001600160a01b03909216919091179055005b63a9fbf51f60e01b5f523360045260245ffd5b506001600160a01b0381165f90815260056020908152604080832033845290915290205460ff1615610b6a565b506001600160a01b038116331415610b64565b346101aa5760203660031901126101aa57600435610c3d8161112d565b505f526004602052602060018060a01b0360405f205416604051908152f35b346101aa575f3660031901126101aa576040515f5f54610c7b81610e81565b808452906001811690811561094b5750600114610ca2576107318361071d81850382610e0d565b5f8080527f290decd9548b62a8d60345a988386fc84ba6bc95484008f6362f93160ef3e563939250905b808210610ce45750909150810160200161071d6108dd565b919260018160209254838588010152019101909291610ccc565b346101aa5760203660031901126101aa576004359063ffffffff60e01b82168092036101aa57602091632483248360e11b8114908115610d40575b5015158152f35b6380ac58cd60e01b811491508115610d72575b8115610d61575b5083610d39565b6301ffc9a760e01b14905083610d5a565b635b5e139f60e01b81149150610d53565b805180835260209291819084018484015e5f828201840152601f01601f1916010190565b600435906001600160a01b03821682036101aa57565b602435906001600160a01b03821682036101aa57565b60609060031901126101aa576004356001600160a01b03811681036101aa57906024356001600160a01b03811681036101aa579060443590565b90601f8019910116810190811067ffffffffffffffff82111761049157604052565b67ffffffffffffffff811161049157601f01601f191660200190565b929192610e5782610e2f565b91610e656040519384610e0d565b8294818452818301116101aa578281602093845f960137010152565b90600182811c92168015610eaf575b6020831014610e9b57565b634e487b7160e01b5f52602260045260245ffd5b91607f1691610e90565b6001600160a01b03909116919082156105f2575f828152600260205260409020546001600160a01b031692829033151580610fb1575b5084610f7e575b805f52600360205260405f2060018154019055815f52600260205260405f20816bffffffffffffffffffffffff60a01b825416179055847fddf252ad1be2c89b69c2b068fc378daa952ba7f163c4a11628f55a4df523b3ef5f80a46001600160a01b0316808303610f6657505050565b6364283d7b60e01b5f5260045260245260445260645ffd5b5f82815260046020526040902080546001600160a01b0319169055845f52600360205260405f205f198154019055610ef6565b90915080610ff5575b15610fc75782905f610eef565b8284610fdf57637e27328960e01b5f5260045260245ffd5b63177e802f60e01b5f523360045260245260445ffd5b503384148015611024575b80610fba57505f838152600460205260409020546001600160a01b03163314610fba565b505f84815260056020908152604080832033845290915290205460ff16611000565b61104f8161112d565b505f52600660205260405f2060405190815f82549261106d84610e81565b80845293600181169081156110e957506001146110a5575b5061109292500382610e0d565b5f6040516110a1602082610e0d565b5290565b90505f9291925260205f20905f915b8183106110cd575050906020611092928201015f611085565b60209193508060019154838588010152019101909183926110b4565b90506020925061109294915060ff191682840152151560051b8201015f611085565b5f1981146111195760010190565b634e487b7160e01b5f52601160045260245ffd5b5f818152600260205260409020546001600160a01b031690811561114f575090565b637e27328960e01b5f5260045260245ffd5b6007546001600160a01b0316330361117557565b63118cdaa760e01b5f523360045260245ffd5b823b611196575b5050505050565b604051630a85bd0160e11b81526001600160a01b0391821660048201529181166024830152604482019390935260806064820152911691602090829081906111e2906084830190610d83565b03815f865af15f9181611279575b5061124557503d1561123e573d61120681610e2f565b906112146040519283610e0d565b81523d5f602083013e5b805190816112395782633250574960e11b5f5260045260245ffd5b602001fd5b606061121e565b6001600160e01b03191663757a42ff60e11b0161126757505f8080808061118f565b633250574960e11b5f5260045260245ffd5b9091506020813d6020116112b6575b8161129560209383610e0d565b810103126101aa57516001600160e01b0319811681036101aa57905f6111f0565b3d915061128856fea26469706673582212203eab1f8d6e643f83ca482436d4611b3c1c63b3ff404545bac4869f11cfd8112764736f6c634300081e0033",
    "sourcePath": "c:/Users/pp31imm/OneDrive - Education Vaud/Bureau/2me_anne/quatrime_trimstre/(Cryptos)/test_hash/TebeJoelNFT.sol",
    "compiler": {
        "name": "solc",
        "version": "0.8.30+commit.73712a01"
    },
    "functionHashes": {
        "approve(address,uint256)": "095ea7b3",
        "balanceOf(address)": "70a08231",
        "getApproved(uint256)": "081812fc",
        "isApprovedForAll(address,address)": "e985e9c5",
        "isMintEnabled()": "346de50a",
        "maxSupply()": "d5abeb01",
        "mint(string)": "d85d3d27",
        "mintPrice()": "6817c76c",
        "mintedWallets(address)": "ada7c4ed",
        "name()": "06fdde03",
        "owner()": "8da5cb5b",
        "ownerOf(uint256)": "6352211e",
        "renounceOwnership()": "715018a6",
        "safeTransferFrom(address,address,uint256)": "42842e0e",
        "safeTransferFrom(address,address,uint256,bytes)": "b88d4fde",
        "setApprovalForAll(address,bool)": "a22cb465",
        "setMaxSupply(uint256)": "6f8b44b0",
        "supportsInterface(bytes4)": "01ffc9a7",
        "symbol()": "95d89b41",
        "toggleIsMintEnabled()": "c4073217",
        "tokenURI(uint256)": "c87b56dd",
        "totalSupply()": "18160ddd",
        "transferFrom(address,address,uint256)": "23b872dd",
        "transferOwnership(address)": "f2fde38b"
    },
    "gasEstimates": {
        "creation": {
            "codeDepositCost": "970400",
            "executionCost": "infinite",
            "totalCost": "infinite"
        },
        "external": {
            "approve(address,uint256)": "31146",
            "balanceOf(address)": "2667",
            "getApproved(uint256)": "4625",
            "isApprovedForAll(address,address)": "3057",
            "isMintEnabled()": "2400",
            "maxSupply()": "2696",
            "mint(string)": "infinite",
            "mintPrice()": "2454",
            "mintedWallets(address)": "2758",
            "name()": "infinite",
            "owner()": "2566",
            "ownerOf(uint256)": "2594",
            "renounceOwnership()": "28324",
            "safeTransferFrom(address,address,uint256)": "infinite",
            "safeTransferFrom(address,address,uint256,bytes)": "infinite",
            "setApprovalForAll(address,bool)": "26752",
            "setMaxSupply(uint256)": "24622",
            "supportsInterface(bytes4)": "379",
            "symbol()": "infinite",
            "toggleIsMintEnabled()": "26932",
            "tokenURI(uint256)": "infinite",
            "totalSupply()": "2344",
            "transferFrom(address,address,uint256)": "106367",
            "transferOwnership(address)": "28674"
        }
    }
}